{
  "address": "0xACC756f6AA661554e78aB346C7dCc888588155a2",
  "abi": [
    {
      "inputs": [
        {
          "internalType": "address",
          "name": "initialOwner",
          "type": "address"
        }
      ],
      "stateMutability": "nonpayable",
      "type": "constructor"
    },
    {
      "inputs": [],
      "name": "ERC721EnumerableForbiddenBatchMint",
      "type": "error"
    },
    {
      "inputs": [
        {
          "internalType": "address",
          "name": "sender",
          "type": "address"
        },
        {
          "internalType": "uint256",
          "name": "tokenId",
          "type": "uint256"
        },
        {
          "internalType": "address",
          "name": "owner",
          "type": "address"
        }
      ],
      "name": "ERC721IncorrectOwner",
      "type": "error"
    },
    {
      "inputs": [
        {
          "internalType": "address",
          "name": "operator",
          "type": "address"
        },
        {
          "internalType": "uint256",
          "name": "tokenId",
          "type": "uint256"
        }
      ],
      "name": "ERC721InsufficientApproval",
      "type": "error"
    },
    {
      "inputs": [
        {
          "internalType": "address",
          "name": "approver",
          "type": "address"
        }
      ],
      "name": "ERC721InvalidApprover",
      "type": "error"
    },
    {
      "inputs": [
        {
          "internalType": "address",
          "name": "operator",
          "type": "address"
        }
      ],
      "name": "ERC721InvalidOperator",
      "type": "error"
    },
    {
      "inputs": [
        {
          "internalType": "address",
          "name": "owner",
          "type": "address"
        }
      ],
      "name": "ERC721InvalidOwner",
      "type": "error"
    },
    {
      "inputs": [
        {
          "internalType": "address",
          "name": "receiver",
          "type": "address"
        }
      ],
      "name": "ERC721InvalidReceiver",
      "type": "error"
    },
    {
      "inputs": [
        {
          "internalType": "address",
          "name": "sender",
          "type": "address"
        }
      ],
      "name": "ERC721InvalidSender",
      "type": "error"
    },
    {
      "inputs": [
        {
          "internalType": "uint256",
          "name": "tokenId",
          "type": "uint256"
        }
      ],
      "name": "ERC721NonexistentToken",
      "type": "error"
    },
    {
      "inputs": [
        {
          "internalType": "address",
          "name": "owner",
          "type": "address"
        },
        {
          "internalType": "uint256",
          "name": "index",
          "type": "uint256"
        }
      ],
      "name": "ERC721OutOfBoundsIndex",
      "type": "error"
    },
    {
      "inputs": [
        {
          "internalType": "address",
          "name": "owner",
          "type": "address"
        }
      ],
      "name": "OwnableInvalidOwner",
      "type": "error"
    },
    {
      "inputs": [
        {
          "internalType": "address",
          "name": "account",
          "type": "address"
        }
      ],
      "name": "OwnableUnauthorizedAccount",
      "type": "error"
    },
    {
      "anonymous": false,
      "inputs": [
        {
          "indexed": true,
          "internalType": "address",
          "name": "owner",
          "type": "address"
        },
        {
          "indexed": true,
          "internalType": "address",
          "name": "approved",
          "type": "address"
        },
        {
          "indexed": true,
          "internalType": "uint256",
          "name": "tokenId",
          "type": "uint256"
        }
      ],
      "name": "Approval",
      "type": "event"
    },
    {
      "anonymous": false,
      "inputs": [
        {
          "indexed": true,
          "internalType": "address",
          "name": "owner",
          "type": "address"
        },
        {
          "indexed": true,
          "internalType": "address",
          "name": "operator",
          "type": "address"
        },
        {
          "indexed": false,
          "internalType": "bool",
          "name": "approved",
          "type": "bool"
        }
      ],
      "name": "ApprovalForAll",
      "type": "event"
    },
    {
      "anonymous": false,
      "inputs": [
        {
          "indexed": false,
          "internalType": "uint256",
          "name": "newDuration",
          "type": "uint256"
        }
      ],
      "name": "DurationUpdated",
      "type": "event"
    },
    {
      "anonymous": false,
      "inputs": [
        {
          "indexed": true,
          "internalType": "address",
          "name": "previousOwner",
          "type": "address"
        },
        {
          "indexed": true,
          "internalType": "address",
          "name": "newOwner",
          "type": "address"
        }
      ],
      "name": "OwnershipTransferred",
      "type": "event"
    },
    {
      "anonymous": false,
      "inputs": [
        {
          "indexed": false,
          "internalType": "uint256",
          "name": "newPrice",
          "type": "uint256"
        }
      ],
      "name": "PriceUpdated",
      "type": "event"
    },
    {
      "anonymous": false,
      "inputs": [
        {
          "indexed": true,
          "internalType": "uint256",
          "name": "tokenId",
          "type": "uint256"
        },
        {
          "indexed": false,
          "internalType": "uint256",
          "name": "activationTime",
          "type": "uint256"
        },
        {
          "indexed": false,
          "internalType": "uint256",
          "name": "expirationTime",
          "type": "uint256"
        }
      ],
      "name": "TicketActivated",
      "type": "event"
    },
    {
      "anonymous": false,
      "inputs": [
        {
          "indexed": true,
          "internalType": "address",
          "name": "owner",
          "type": "address"
        },
        {
          "indexed": true,
          "internalType": "uint256",
          "name": "tokenId",
          "type": "uint256"
        },
        {
          "indexed": false,
          "internalType": "uint256",
          "name": "duration",
          "type": "uint256"
        }
      ],
      "name": "TicketMinted",
      "type": "event"
    },
    {
      "anonymous": false,
      "inputs": [
        {
          "indexed": true,
          "internalType": "address",
          "name": "from",
          "type": "address"
        },
        {
          "indexed": true,
          "internalType": "address",
          "name": "to",
          "type": "address"
        },
        {
          "indexed": true,
          "internalType": "uint256",
          "name": "tokenId",
          "type": "uint256"
        }
      ],
      "name": "Transfer",
      "type": "event"
    },
    {
      "inputs": [
        {
          "internalType": "uint256",
          "name": "tokenId",
          "type": "uint256"
        }
      ],
      "name": "activate",
      "outputs": [],
      "stateMutability": "nonpayable",
      "type": "function"
    },
    {
      "inputs": [
        {
          "internalType": "address",
          "name": "to",
          "type": "address"
        },
        {
          "internalType": "uint256",
          "name": "tokenId",
          "type": "uint256"
        }
      ],
      "name": "approve",
      "outputs": [],
      "stateMutability": "nonpayable",
      "type": "function"
    },
    {
      "inputs": [
        {
          "internalType": "address",
          "name": "owner",
          "type": "address"
        }
      ],
      "name": "balanceOf",
      "outputs": [
        {
          "internalType": "uint256",
          "name": "",
          "type": "uint256"
        }
      ],
      "stateMutability": "view",
      "type": "function"
    },
    {
      "inputs": [
        {
          "internalType": "address",
          "name": "user",
          "type": "address"
        }
      ],
      "name": "checkAccess",
      "outputs": [
        {
          "internalType": "bool",
          "name": "",
          "type": "bool"
        }
      ],
      "stateMutability": "view",
      "type": "function"
    },
    {
      "inputs": [],
      "name": "defaultDuration",
      "outputs": [
        {
          "internalType": "uint256",
          "name": "",
          "type": "uint256"
        }
      ],
      "stateMutability": "view",
      "type": "function"
    },
    {
      "inputs": [
        {
          "internalType": "uint256",
          "name": "tokenId",
          "type": "uint256"
        }
      ],
      "name": "getApproved",
      "outputs": [
        {
          "internalType": "address",
          "name": "",
          "type": "address"
        }
      ],
      "stateMutability": "view",
      "type": "function"
    },
    {
      "inputs": [
        {
          "internalType": "address",
          "name": "user",
          "type": "address"
        }
      ],
      "name": "getUserTickets",
      "outputs": [
        {
          "internalType": "uint256[]",
          "name": "",
          "type": "uint256[]"
        }
      ],
      "stateMutability": "view",
      "type": "function"
    },
    {
      "inputs": [
        {
          "internalType": "address",
          "name": "owner",
          "type": "address"
        },
        {
          "internalType": "address",
          "name": "operator",
          "type": "address"
        }
      ],
      "name": "isApprovedForAll",
      "outputs": [
        {
          "internalType": "bool",
          "name": "",
          "type": "bool"
        }
      ],
      "stateMutability": "view",
      "type": "function"
    },
    {
      "inputs": [
        {
          "internalType": "uint256",
          "name": "tokenId",
          "type": "uint256"
        }
      ],
      "name": "isValid",
      "outputs": [
        {
          "internalType": "bool",
          "name": "",
          "type": "bool"
        }
      ],
      "stateMutability": "view",
      "type": "function"
    },
    {
      "inputs": [
        {
          "internalType": "uint256",
          "name": "quantity",
          "type": "uint256"
        }
      ],
      "name": "mint",
      "outputs": [],
      "stateMutability": "payable",
      "type": "function"
    },
    {
      "inputs": [],
      "name": "name",
      "outputs": [
        {
          "internalType": "string",
          "name": "",
          "type": "string"
        }
      ],
      "stateMutability": "view",
      "type": "function"
    },
    {
      "inputs": [],
      "name": "owner",
      "outputs": [
        {
          "internalType": "address",
          "name": "",
          "type": "address"
        }
      ],
      "stateMutability": "view",
      "type": "function"
    },
    {
      "inputs": [
        {
          "internalType": "uint256",
          "name": "tokenId",
          "type": "uint256"
        }
      ],
      "name": "ownerOf",
      "outputs": [
        {
          "internalType": "address",
          "name": "",
          "type": "address"
        }
      ],
      "stateMutability": "view",
      "type": "function"
    },
    {
      "inputs": [],
      "name": "price",
      "outputs": [
        {
          "internalType": "uint256",
          "name": "",
          "type": "uint256"
        }
      ],
      "stateMutability": "view",
      "type": "function"
    },
    {
      "inputs": [
        {
          "internalType": "uint256",
          "name": "tokenId",
          "type": "uint256"
        }
      ],
      "name": "remainingTime",
      "outputs": [
        {
          "internalType": "uint256",
          "name": "",
          "type": "uint256"
        }
      ],
      "stateMutability": "view",
      "type": "function"
    },
    {
      "inputs": [],
      "name": "renounceOwnership",
      "outputs": [],
      "stateMutability": "nonpayable",
      "type": "function"
    },
    {
      "inputs": [
        {
          "internalType": "address",
          "name": "from",
          "type": "address"
        },
        {
          "internalType": "address",
          "name": "to",
          "type": "address"
        },
        {
          "internalType": "uint256",
          "name": "tokenId",
          "type": "uint256"
        }
      ],
      "name": "safeTransferFrom",
      "outputs": [],
      "stateMutability": "nonpayable",
      "type": "function"
    },
    {
      "inputs": [
        {
          "internalType": "address",
          "name": "from",
          "type": "address"
        },
        {
          "internalType": "address",
          "name": "to",
          "type": "address"
        },
        {
          "internalType": "uint256",
          "name": "tokenId",
          "type": "uint256"
        },
        {
          "internalType": "bytes",
          "name": "data",
          "type": "bytes"
        }
      ],
      "name": "safeTransferFrom",
      "outputs": [],
      "stateMutability": "nonpayable",
      "type": "function"
    },
    {
      "inputs": [
        {
          "internalType": "address",
          "name": "operator",
          "type": "address"
        },
        {
          "internalType": "bool",
          "name": "approved",
          "type": "bool"
        }
      ],
      "name": "setApprovalForAll",
      "outputs": [],
      "stateMutability": "nonpayable",
      "type": "function"
    },
    {
      "inputs": [
        {
          "internalType": "uint256",
          "name": "newDuration",
          "type": "uint256"
        }
      ],
      "name": "setDuration",
      "outputs": [],
      "stateMutability": "nonpayable",
      "type": "function"
    },
    {
      "inputs": [
        {
          "internalType": "uint256",
          "name": "newPrice",
          "type": "uint256"
        }
      ],
      "name": "setPrice",
      "outputs": [],
      "stateMutability": "nonpayable",
      "type": "function"
    },
    {
      "inputs": [
        {
          "internalType": "bytes4",
          "name": "interfaceId",
          "type": "bytes4"
        }
      ],
      "name": "supportsInterface",
      "outputs": [
        {
          "internalType": "bool",
          "name": "",
          "type": "bool"
        }
      ],
      "stateMutability": "view",
      "type": "function"
    },
    {
      "inputs": [],
      "name": "symbol",
      "outputs": [
        {
          "internalType": "string",
          "name": "",
          "type": "string"
        }
      ],
      "stateMutability": "view",
      "type": "function"
    },
    {
      "inputs": [
        {
          "internalType": "uint256",
          "name": "",
          "type": "uint256"
        }
      ],
      "name": "tickets",
      "outputs": [
        {
          "internalType": "uint256",
          "name": "activationTime",
          "type": "uint256"
        },
        {
          "internalType": "uint256",
          "name": "duration",
          "type": "uint256"
        }
      ],
      "stateMutability": "view",
      "type": "function"
    },
    {
      "inputs": [
        {
          "internalType": "uint256",
          "name": "index",
          "type": "uint256"
        }
      ],
      "name": "tokenByIndex",
      "outputs": [
        {
          "internalType": "uint256",
          "name": "",
          "type": "uint256"
        }
      ],
      "stateMutability": "view",
      "type": "function"
    },
    {
      "inputs": [
        {
          "internalType": "address",
          "name": "owner",
          "type": "address"
        },
        {
          "internalType": "uint256",
          "name": "index",
          "type": "uint256"
        }
      ],
      "name": "tokenOfOwnerByIndex",
      "outputs": [
        {
          "internalType": "uint256",
          "name": "",
          "type": "uint256"
        }
      ],
      "stateMutability": "view",
      "type": "function"
    },
    {
      "inputs": [
        {
          "internalType": "uint256",
          "name": "tokenId",
          "type": "uint256"
        }
      ],
      "name": "tokenURI",
      "outputs": [
        {
          "internalType": "string",
          "name": "",
          "type": "string"
        }
      ],
      "stateMutability": "view",
      "type": "function"
    },
    {
      "inputs": [],
      "name": "totalSupply",
      "outputs": [
        {
          "internalType": "uint256",
          "name": "",
          "type": "uint256"
        }
      ],
      "stateMutability": "view",
      "type": "function"
    },
    {
      "inputs": [
        {
          "internalType": "address",
          "name": "from",
          "type": "address"
        },
        {
          "internalType": "address",
          "name": "to",
          "type": "address"
        },
        {
          "internalType": "uint256",
          "name": "tokenId",
          "type": "uint256"
        }
      ],
      "name": "transferFrom",
      "outputs": [],
      "stateMutability": "nonpayable",
      "type": "function"
    },
    {
      "inputs": [
        {
          "internalType": "address",
          "name": "newOwner",
          "type": "address"
        }
      ],
      "name": "transferOwnership",
      "outputs": [],
      "stateMutability": "nonpayable",
      "type": "function"
    },
    {
      "inputs": [],
      "name": "withdraw",
      "outputs": [],
      "stateMutability": "nonpayable",
      "type": "function"
    }
  ],
  "transactionHash": "0x90a0dff433934d9cf8098a1fdf32be3520ea21ecf3f24ebf41a624f05f921378",
  "args": [
    "0x1094E9fD1281AE8541Ed930dcbc9e8D69e022C7f"
  ],
  "numDeployments": 1,
  "solcInputHash": "fe3fda30cb82a1b93e2775eeb0e566e9",
  "bytecode": "0x608060405266038d7ea4c68000600c55610e10600d5534801561002157600080fd5b506040516120d83803806120d883398101604081905261004091610133565b806040518060400160405280600d81526020016c15da519a5058d8d95cdcd39195609a1b815250604051806040016040528060048152602001635749464960e01b81525081600090816100939190610202565b5060016100a08282610202565b5050506001600160a01b0381166100d157604051631e4fbdf760e01b81526000600482015260240160405180910390fd5b6100da816100e1565b50506102c0565b600a80546001600160a01b038381166001600160a01b0319831681179093556040519116919082907f8be0079c531659141344cd1fd0a4f28419497f9722a3daafe3b4186f6b6457e090600090a35050565b60006020828403121561014557600080fd5b81516001600160a01b038116811461015c57600080fd5b9392505050565b634e487b7160e01b600052604160045260246000fd5b600181811c9082168061018d57607f821691505b6020821081036101ad57634e487b7160e01b600052602260045260246000fd5b50919050565b601f8211156101fd57806000526020600020601f840160051c810160208510156101da5750805b601f840160051c820191505b818110156101fa57600081556001016101e6565b50505b505050565b81516001600160401b0381111561021b5761021b610163565b61022f816102298454610179565b846101b3565b6020601f821160018114610263576000831561024b5750848201515b600019600385901b1c1916600184901b1784556101fa565b600084815260208120601f198516915b828110156102935787850151825560209485019460019092019101610273565b50848210156102b15786840151600019600387901b60f8161c191681555b50505050600190811b01905550565b611e09806102cf6000396000f3fe6080604052600436106101d85760003560e01c80636352211e11610102578063a22cb46511610095578063e985e9c511610064578063e985e9c514610563578063f2fde38b14610583578063f577a500146105a3578063f6be71d1146105c357600080fd5b8063a22cb465146104e3578063b260c42a14610503578063b88d4fde14610523578063c87b56dd1461054357600080fd5b806391b7f5ed116100d157806391b7f5ed1461048557806395d89b41146104a5578063a035b1fe146104ba578063a0712d68146104d057600080fd5b80636352211e1461041257806370a0823114610432578063715018a6146104525780638da5cb5b1461046757600080fd5b806323b872dd1161017a57806342842e0e1161014957806342842e0e14610369578063466a0146146103895780634f6ccce7146103a957806350b44712146103c957600080fd5b806323b872dd146102fe5780632af7e2ea1461031e5780632f745c59146103345780633ccfd60b1461035457600080fd5b8063081812fc116101b6578063081812fc14610261578063095ea7b3146102995780630c64a7f2146102bb57806318160ddd146102e957600080fd5b806301ffc9a7146101dd5780630484a22f1461021257806306fdde031461023f575b600080fd5b3480156101e957600080fd5b506101fd6101f8366004611995565b6105e3565b60405190151581526020015b60405180910390f35b34801561021e57600080fd5b5061023261022d3660046119ce565b6105f4565b60405161020991906119e9565b34801561024b57600080fd5b5061025461068c565b6040516102099190611a7c565b34801561026d57600080fd5b5061028161027c366004611a8f565b61071e565b6040516001600160a01b039091168152602001610209565b3480156102a557600080fd5b506102b96102b4366004611aa8565b610747565b005b3480156102c757600080fd5b506102db6102d6366004611a8f565b610756565b604051908152602001610209565b3480156102f557600080fd5b506008546102db565b34801561030a57600080fd5b506102b9610319366004611ad2565b6107f8565b34801561032a57600080fd5b506102db600d5481565b34801561034057600080fd5b506102db61034f366004611aa8565b610888565b34801561036057600080fd5b506102b96108ed565b34801561037557600080fd5b506102b9610384366004611ad2565b61099e565b34801561039557600080fd5b506101fd6103a43660046119ce565b6109be565b3480156103b557600080fd5b506102db6103c4366004611a8f565b610a22565b3480156103d557600080fd5b506103fd6103e4366004611a8f565b600b602052600090815260409020805460019091015482565b60408051928352602083019190915201610209565b34801561041e57600080fd5b5061028161042d366004611a8f565b610a7b565b34801561043e57600080fd5b506102db61044d3660046119ce565b610a86565b34801561045e57600080fd5b506102b9610ace565b34801561047357600080fd5b50600a546001600160a01b0316610281565b34801561049157600080fd5b506102b96104a0366004611a8f565b610ae2565b3480156104b157600080fd5b50610254610b26565b3480156104c657600080fd5b506102db600c5481565b6102b96104de366004611a8f565b610b35565b3480156104ef57600080fd5b506102b96104fe366004611b0f565b610c80565b34801561050f57600080fd5b506102b961051e366004611a8f565b610c8b565b34801561052f57600080fd5b506102b961053e366004611b61565b610d8b565b34801561054f57600080fd5b5061025461055e366004611a8f565b610da2565b34801561056f57600080fd5b506101fd61057e366004611c45565b610e16565b34801561058f57600080fd5b506102b961059e3660046119ce565b610e44565b3480156105af57600080fd5b506101fd6105be366004611a8f565b610e7f565b3480156105cf57600080fd5b506102b96105de366004611a8f565b610f07565b60006105ee82610f44565b92915050565b6060600061060183610a86565b905060008167ffffffffffffffff81111561061e5761061e611b4b565b604051908082528060200260200182016040528015610647578160200160208202803683370190505b50905060005b828110156106845761065f8582610888565b82828151811061067157610671611c78565b602090810291909101015260010161064d565b509392505050565b60606000805461069b90611c8e565b80601f01602080910402602001604051908101604052809291908181526020018280546106c790611c8e565b80156107145780601f106106e957610100808354040283529160200191610714565b820191906000526020600020905b8154815290600101906020018083116106f757829003601f168201915b5050505050905090565b600061072982610f69565b506000828152600460205260409020546001600160a01b03166105ee565b610752828233610fa2565b5050565b6000818152600260205260408120546001600160a01b031661077a57506000919050565b6000828152600b60209081526040808320815180830190925280548083526001909101549282019290925291036107b5576020015192915050565b602081015181516107c69190611cde565b42106107d55750600092915050565b6020810151815142916107e791611cde565b6107f19190611cf1565b9392505050565b6001600160a01b03821661082757604051633250574960e11b8152600060048201526024015b60405180910390fd5b6000610834838333610faf565b9050836001600160a01b0316816001600160a01b031614610882576040516364283d7b60e01b81526001600160a01b038086166004830152602482018490528216604482015260640161081e565b50505050565b600061089383610a86565b82106108c45760405163295f44f760e21b81526001600160a01b03841660048201526024810183905260440161081e565b506001600160a01b03919091166000908152600660209081526040808320938352929052205490565b6108f5610fc4565b6000610909600a546001600160a01b031690565b6001600160a01b03164760405160006040518083038185875af1925050503d8060008114610953576040519150601f19603f3d011682016040523d82523d6000602084013e610958565b606091505b505090508061099b5760405162461bcd60e51b815260206004820152600f60248201526e15da5d1a191c985dc819985a5b1959608a1b604482015260640161081e565b50565b6109b983838360405180602001604052806000815250610d8b565b505050565b6000806109ca83610a86565b9050806000036109dd5750600092915050565b60005b81811015610a185760006109f48583610888565b90506109ff81610e7f565b15610a0f57506001949350505050565b506001016109e0565b5060009392505050565b6000610a2d60085490565b8210610a565760405163295f44f760e21b8152600060048201526024810183905260440161081e565b60088281548110610a6957610a69611c78565b90600052602060002001549050919050565b60006105ee82610f69565b60006001600160a01b038216610ab2576040516322718ad960e21b81526000600482015260240161081e565b506001600160a01b031660009081526003602052604090205490565b610ad6610fc4565b610ae06000610ff1565b565b610aea610fc4565b600c8190556040518181527f66cbca4f3c64fecf1dcb9ce094abcf7f68c3450a1d4e3a8e917dd621edb4ebe0906020015b60405180910390a150565b60606001805461069b90611c8e565b80600c54610b439190611d04565b341015610b925760405162461bcd60e51b815260206004820152601760248201527f496e73756666696369656e742066756e64732073656e74000000000000000000604482015260640161081e565b60008111610be25760405162461bcd60e51b815260206004820152601f60248201527f5175616e74697479206d7573742062652067726561746572207468616e203000604482015260640161081e565b60005b8181101561075257600e805460009182610bfe83611d1b565b919050559050610c0e3382611043565b6040805180820182526000808252600d80546020808501918252868452600b815292859020935184555160019093019290925590549151918252829133917fcbea9c23945e351434f7ae5b1a435091cc278dd9dd0eba4c04203674014ca7d7910160405180910390a350600101610be5565b61075233838361105d565b33610c9582610a7b565b6001600160a01b031614610cdb5760405162461bcd60e51b815260206004820152600d60248201526c2737ba103a34329037bbb732b960991b604482015260640161081e565b6000818152600b60205260409020805415610d385760405162461bcd60e51b815260206004820152601860248201527f5469636b657420616c7265616479206163746976617465640000000000000000604482015260640161081e565b42808255600182015483917f75adbf5b81543562fc70a5a00342dd82ff14eed604c4ab5911d88a943685198091610d6f9082611cde565b6040805192835260208301919091520160405180910390a25050565b610d968484846107f8565b610882848484846110fc565b6060610dad82610f69565b506000610dc560408051602081019091526000815290565b90506000815111610de557604051806020016040528060008152506107f1565b80610def84611225565b604051602001610e00929190611d34565b6040516020818303038152906040529392505050565b6001600160a01b03918216600090815260056020908152604080832093909416825291909152205460ff1690565b610e4c610fc4565b6001600160a01b038116610e7657604051631e4fbdf760e01b81526000600482015260240161081e565b61099b81610ff1565b6000818152600260205260408120546001600160a01b0316610ea357506000919050565b6000828152600b6020908152604080832081518083019092528054808352600190910154928201929092529103610edd5750600092915050565b60208101518151610eee9190611cde565b421115610efe5750600092915050565b50600192915050565b610f0f610fc4565b600d8190556040518181527f91abcc2d6823e3a3f11d31b208dd3065d2c6a791f1c7c9fe96a42ce12897eac590602001610b1b565b60006001600160e01b0319821663780e9d6360e01b14806105ee57506105ee826112b8565b6000818152600260205260408120546001600160a01b0316806105ee57604051637e27328960e01b81526004810184905260240161081e565b6109b98383836001611308565b6000610fbc84848461140e565b949350505050565b600a546001600160a01b03163314610ae05760405163118cdaa760e01b815233600482015260240161081e565b600a80546001600160a01b038381166001600160a01b0319831681179093556040519116919082907f8be0079c531659141344cd1fd0a4f28419497f9722a3daafe3b4186f6b6457e090600090a35050565b6107528282604051806020016040528060008152506114db565b6001600160a01b03821661108f57604051630b61174360e31b81526001600160a01b038316600482015260240161081e565b6001600160a01b03838116600081815260056020908152604080832094871680845294825291829020805460ff191686151590811790915591519182527f17307eab39ab6107e8899845ad3d59bd9653f200f220920489ca2b5937696c31910160405180910390a3505050565b6001600160a01b0383163b1561088257604051630a85bd0160e11b81526001600160a01b0384169063150b7a029061113e903390889087908790600401611d63565b6020604051808303816000875af1925050508015611179575060408051601f3d908101601f1916820190925261117691810190611da0565b60015b6111e2573d8080156111a7576040519150601f19603f3d011682016040523d82523d6000602084013e6111ac565b606091505b5080516000036111da57604051633250574960e11b81526001600160a01b038516600482015260240161081e565b805181602001fd5b6001600160e01b03198116630a85bd0160e11b1461121e57604051633250574960e11b81526001600160a01b038516600482015260240161081e565b5050505050565b60606000611232836114f2565b600101905060008167ffffffffffffffff81111561125257611252611b4b565b6040519080825280601f01601f19166020018201604052801561127c576020820181803683370190505b5090508181016020015b600019016f181899199a1a9b1b9c1cb0b131b232b360811b600a86061a8153600a850494508461128657509392505050565b60006001600160e01b031982166380ac58cd60e01b14806112e957506001600160e01b03198216635b5e139f60e01b145b806105ee57506301ffc9a760e01b6001600160e01b03198316146105ee565b808061131c57506001600160a01b03821615155b156113de57600061132c84610f69565b90506001600160a01b038316158015906113585750826001600160a01b0316816001600160a01b031614155b801561136b57506113698184610e16565b155b156113945760405163a9fbf51f60e01b81526001600160a01b038416600482015260240161081e565b81156113dc5783856001600160a01b0316826001600160a01b03167f8c5be1e5ebec7d5bd14f71427d1e84f3dd0314c0f7b2291e5b200ac8c7c3b92560405160405180910390a45b505b5050600090815260046020526040902080546001600160a01b0319166001600160a01b0392909216919091179055565b60008061141c8585856115ca565b90506001600160a01b0381166114795761147484600880546000838152600960205260408120829055600182018355919091527ff3f7a9fe364faab93b216da50a3214154f22a0a2b415b23a84c8169e8b636ee30155565b61149c565b846001600160a01b0316816001600160a01b03161461149c5761149c81856116c3565b6001600160a01b0385166114b8576114b384611754565b610fbc565b846001600160a01b0316816001600160a01b031614610fbc57610fbc8585611803565b6114e58383611853565b6109b960008484846110fc565b60008072184f03e93ff9f4daa797ed6e38ed64bf6a1f0160401b83106115315772184f03e93ff9f4daa797ed6e38ed64bf6a1f0160401b830492506040015b6d04ee2d6d415b85acef8100000000831061155d576d04ee2d6d415b85acef8100000000830492506020015b662386f26fc10000831061157b57662386f26fc10000830492506010015b6305f5e1008310611593576305f5e100830492506008015b61271083106115a757612710830492506004015b606483106115b9576064830492506002015b600a83106105ee5760010192915050565b6000828152600260205260408120546001600160a01b03908116908316156115f7576115f78184866118b8565b6001600160a01b0381161561163557611614600085600080611308565b6001600160a01b038116600090815260036020526040902080546000190190555b6001600160a01b03851615611664576001600160a01b0385166000908152600360205260409020805460010190555b60008481526002602052604080822080546001600160a01b0319166001600160a01b0389811691821790925591518793918516917fddf252ad1be2c89b69c2b068fc378daa952ba7f163c4a11628f55a4df523b3ef91a4949350505050565b60006116ce83610a86565b600083815260076020526040902054909150808214611721576001600160a01b03841660009081526006602090815260408083208584528252808320548484528184208190558352600790915290208190555b5060009182526007602090815260408084208490556001600160a01b039094168352600681528383209183525290812055565b60085460009061176690600190611cf1565b6000838152600960205260408120546008805493945090928490811061178e5761178e611c78565b9060005260206000200154905080600883815481106117af576117af611c78565b60009182526020808320909101929092558281526009909152604080822084905585825281205560088054806117e7576117e7611dbd565b6001900381819060005260206000200160009055905550505050565b6000600161181084610a86565b61181a9190611cf1565b6001600160a01b039093166000908152600660209081526040808320868452825280832085905593825260079052919091209190915550565b6001600160a01b03821661187d57604051633250574960e11b81526000600482015260240161081e565b600061188b83836000610faf565b90506001600160a01b038116156109b9576040516339e3563760e11b81526000600482015260240161081e565b6118c383838361191c565b6109b9576001600160a01b0383166118f157604051637e27328960e01b81526004810182905260240161081e565b60405163177e802f60e01b81526001600160a01b03831660048201526024810182905260440161081e565b60006001600160a01b03831615801590610fbc5750826001600160a01b0316846001600160a01b0316148061195657506119568484610e16565b80610fbc5750506000908152600460205260409020546001600160a01b03908116911614919050565b6001600160e01b03198116811461099b57600080fd5b6000602082840312156119a757600080fd5b81356107f18161197f565b80356001600160a01b03811681146119c957600080fd5b919050565b6000602082840312156119e057600080fd5b6107f1826119b2565b602080825282518282018190526000918401906040840190835b81811015611a21578351835260209384019390920191600101611a03565b509095945050505050565b60005b83811015611a47578181015183820152602001611a2f565b50506000910152565b60008151808452611a68816020860160208601611a2c565b601f01601f19169290920160200192915050565b6020815260006107f16020830184611a50565b600060208284031215611aa157600080fd5b5035919050565b60008060408385031215611abb57600080fd5b611ac4836119b2565b946020939093013593505050565b600080600060608486031215611ae757600080fd5b611af0846119b2565b9250611afe602085016119b2565b929592945050506040919091013590565b60008060408385031215611b2257600080fd5b611b2b836119b2565b915060208301358015158114611b4057600080fd5b809150509250929050565b634e487b7160e01b600052604160045260246000fd5b60008060008060808587031215611b7757600080fd5b611b80856119b2565b9350611b8e602086016119b2565b925060408501359150606085013567ffffffffffffffff811115611bb157600080fd5b8501601f81018713611bc257600080fd5b803567ffffffffffffffff811115611bdc57611bdc611b4b565b604051601f8201601f19908116603f0116810167ffffffffffffffff81118282101715611c0b57611c0b611b4b565b604052818152828201602001891015611c2357600080fd5b8160208401602083013760006020838301015280935050505092959194509250565b60008060408385031215611c5857600080fd5b611c61836119b2565b9150611c6f602084016119b2565b90509250929050565b634e487b7160e01b600052603260045260246000fd5b600181811c90821680611ca257607f821691505b602082108103611cc257634e487b7160e01b600052602260045260246000fd5b50919050565b634e487b7160e01b600052601160045260246000fd5b808201808211156105ee576105ee611cc8565b818103818111156105ee576105ee611cc8565b80820281158282048414176105ee576105ee611cc8565b600060018201611d2d57611d2d611cc8565b5060010190565b60008351611d46818460208801611a2c565b835190830190611d5a818360208801611a2c565b01949350505050565b6001600160a01b0385811682528416602082015260408101839052608060608201819052600090611d9690830184611a50565b9695505050505050565b600060208284031215611db257600080fd5b81516107f18161197f565b634e487b7160e01b600052603160045260246000fdfea264697066735822122012ecc41d77a1f46993e6766a7312c49410f349d31e08e15eafdd0008d0a3851064736f6c634300081e0033",
  "devdoc": {
    "details": "NFT Ticket system for community WiFi access.      Each NFT represents time-limited access (e.g. 1 hour).      Router verifies access by calling checkAccess(address).",
    "errors": {
      "ERC721EnumerableForbiddenBatchMint()": [
        {
          "details": "Batch mint is not allowed."
        }
      ],
      "ERC721IncorrectOwner(address,uint256,address)": [
        {
          "details": "Indicates an error related to the ownership over a particular token. Used in transfers.",
          "params": {
            "owner": "Address of the current owner of a token.",
            "sender": "Address whose tokens are being transferred.",
            "tokenId": "Identifier number of a token."
          }
        }
      ],
      "ERC721InsufficientApproval(address,uint256)": [
        {
          "details": "Indicates a failure with the `operator`s approval. Used in transfers.",
          "params": {
            "operator": "Address that may be allowed to operate on tokens without being their owner.",
            "tokenId": "Identifier number of a token."
          }
        }
      ],
      "ERC721InvalidApprover(address)": [
        {
          "details": "Indicates a failure with the `approver` of a token to be approved. Used in approvals.",
          "params": {
            "approver": "Address initiating an approval operation."
          }
        }
      ],
      "ERC721InvalidOperator(address)": [
        {
          "details": "Indicates a failure with the `operator` to be approved. Used in approvals.",
          "params": {
            "operator": "Address that may be allowed to operate on tokens without being their owner."
          }
        }
      ],
      "ERC721InvalidOwner(address)": [
        {
          "details": "Indicates that an address can't be an owner. For example, `address(0)` is a forbidden owner in EIP-20. Used in balance queries.",
          "params": {
            "owner": "Address of the current owner of a token."
          }
        }
      ],
      "ERC721InvalidReceiver(address)": [
        {
          "details": "Indicates a failure with the token `receiver`. Used in transfers.",
          "params": {
            "receiver": "Address to which tokens are being transferred."
          }
        }
      ],
      "ERC721InvalidSender(address)": [
        {
          "details": "Indicates a failure with the token `sender`. Used in transfers.",
          "params": {
            "sender": "Address whose tokens are being transferred."
          }
        }
      ],
      "ERC721NonexistentToken(uint256)": [
        {
          "details": "Indicates a `tokenId` whose `owner` is the zero address.",
          "params": {
            "tokenId": "Identifier number of a token."
          }
        }
      ],
      "ERC721OutOfBoundsIndex(address,uint256)": [
        {
          "details": "An `owner`'s token query was out of bounds for `index`. NOTE: The owner being `address(0)` indicates a global out of bounds index."
        }
      ],
      "OwnableInvalidOwner(address)": [
        {
          "details": "The owner is not a valid owner account. (eg. `address(0)`)"
        }
      ],
      "OwnableUnauthorizedAccount(address)": [
        {
          "details": "The caller account is not authorized to perform an operation."
        }
      ]
    },
    "events": {
      "Approval(address,address,uint256)": {
        "details": "Emitted when `owner` enables `approved` to manage the `tokenId` token."
      },
      "ApprovalForAll(address,address,bool)": {
        "details": "Emitted when `owner` enables or disables (`approved`) `operator` to manage all of its assets."
      },
      "Transfer(address,address,uint256)": {
        "details": "Emitted when `tokenId` token is transferred from `from` to `to`."
      }
    },
    "kind": "dev",
    "methods": {
      "activate(uint256)": {
        "params": {
          "tokenId": "The ID of the token to activate"
        }
      },
      "approve(address,uint256)": {
        "details": "See {IERC721-approve}."
      },
      "balanceOf(address)": {
        "details": "See {IERC721-balanceOf}."
      },
      "checkAccess(address)": {
        "details": "Used by the router to validate connection",
        "params": {
          "user": "Address of the user"
        }
      },
      "getApproved(uint256)": {
        "details": "See {IERC721-getApproved}."
      },
      "getUserTickets(address)": {
        "details": "Useful for frontend dashboard"
      },
      "isApprovedForAll(address,address)": {
        "details": "See {IERC721-isApprovedForAll}."
      },
      "isValid(uint256)": {
        "params": {
          "tokenId": "The ID to check"
        }
      },
      "mint(uint256)": {
        "params": {
          "quantity": "Number of tickets to mint"
        }
      },
      "name()": {
        "details": "See {IERC721Metadata-name}."
      },
      "owner()": {
        "details": "Returns the address of the current owner."
      },
      "ownerOf(uint256)": {
        "details": "See {IERC721-ownerOf}."
      },
      "renounceOwnership()": {
        "details": "Leaves the contract without owner. It will not be possible to call `onlyOwner` functions. Can only be called by the current owner. NOTE: Renouncing ownership will leave the contract without an owner, thereby disabling any functionality that is only available to the owner."
      },
      "safeTransferFrom(address,address,uint256)": {
        "details": "See {IERC721-safeTransferFrom}."
      },
      "safeTransferFrom(address,address,uint256,bytes)": {
        "details": "See {IERC721-safeTransferFrom}."
      },
      "setApprovalForAll(address,bool)": {
        "details": "See {IERC721-setApprovalForAll}."
      },
      "supportsInterface(bytes4)": {
        "details": "See {IERC165-supportsInterface}."
      },
      "symbol()": {
        "details": "See {IERC721Metadata-symbol}."
      },
      "tokenByIndex(uint256)": {
        "details": "See {IERC721Enumerable-tokenByIndex}."
      },
      "tokenOfOwnerByIndex(address,uint256)": {
        "details": "See {IERC721Enumerable-tokenOfOwnerByIndex}."
      },
      "tokenURI(uint256)": {
        "details": "See {IERC721Metadata-tokenURI}."
      },
      "totalSupply()": {
        "details": "See {IERC721Enumerable-totalSupply}."
      },
      "transferFrom(address,address,uint256)": {
        "details": "See {IERC721-transferFrom}."
      },
      "transferOwnership(address)": {
        "details": "Transfers ownership of the contract to a new account (`newOwner`). Can only be called by the current owner."
      }
    },
    "title": "WiFiAccessNFT",
    "version": 1
  },
  "userdoc": {
    "kind": "user",
    "methods": {
      "activate(uint256)": {
        "notice": "Activate a ticket to start the timer"
      },
      "checkAccess(address)": {
        "notice": "Check if a user has ANY valid, active ticket content"
      },
      "getUserTickets(address)": {
        "notice": "Helper to get all tickets of a user with their status"
      },
      "isValid(uint256)": {
        "notice": "Check if a specific token provides valid access right now"
      },
      "mint(uint256)": {
        "notice": "Mint new access tickets"
      },
      "remainingTime(uint256)": {
        "notice": "Returns remaining seconds for a ticket. 0 if inactive or expired."
      }
    },
    "version": 1
  },
  "storageLayout": {
    "storage": [
      {
        "astId": 317,
        "contract": "contracts/WiFiAccessNFT.sol:WiFiAccessNFT",
        "label": "_name",
        "offset": 0,
        "slot": "0",
        "type": "t_string_storage"
      },
      {
        "astId": 319,
        "contract": "contracts/WiFiAccessNFT.sol:WiFiAccessNFT",
        "label": "_symbol",
        "offset": 0,
        "slot": "1",
        "type": "t_string_storage"
      },
      {
        "astId": 323,
        "contract": "contracts/WiFiAccessNFT.sol:WiFiAccessNFT",
        "label": "_owners",
        "offset": 0,
        "slot": "2",
        "type": "t_mapping(t_uint256,t_address)"
      },
      {
        "astId": 327,
        "contract": "contracts/WiFiAccessNFT.sol:WiFiAccessNFT",
        "label": "_balances",
        "offset": 0,
        "slot": "3",
        "type": "t_mapping(t_address,t_uint256)"
      },
      {
        "astId": 331,
        "contract": "contracts/WiFiAccessNFT.sol:WiFiAccessNFT",
        "label": "_tokenApprovals",
        "offset": 0,
        "slot": "4",
        "type": "t_mapping(t_uint256,t_address)"
      },
      {
        "astId": 337,
        "contract": "contracts/WiFiAccessNFT.sol:WiFiAccessNFT",
        "label": "_operatorApprovals",
        "offset": 0,
        "slot": "5",
        "type": "t_mapping(t_address,t_mapping(t_address,t_bool))"
      },
      {
        "astId": 1447,
        "contract": "contracts/WiFiAccessNFT.sol:WiFiAccessNFT",
        "label": "_ownedTokens",
        "offset": 0,
        "slot": "6",
        "type": "t_mapping(t_address,t_mapping(t_uint256,t_uint256))"
      },
      {
        "astId": 1451,
        "contract": "contracts/WiFiAccessNFT.sol:WiFiAccessNFT",
        "label": "_ownedTokensIndex",
        "offset": 0,
        "slot": "7",
        "type": "t_mapping(t_uint256,t_uint256)"
      },
      {
        "astId": 1454,
        "contract": "contracts/WiFiAccessNFT.sol:WiFiAccessNFT",
        "label": "_allTokens",
        "offset": 0,
        "slot": "8",
        "type": "t_array(t_uint256)dyn_storage"
      },
      {
        "astId": 1458,
        "contract": "contracts/WiFiAccessNFT.sol:WiFiAccessNFT",
        "label": "_allTokensIndex",
        "offset": 0,
        "slot": "9",
        "type": "t_mapping(t_uint256,t_uint256)"
      },
      {
        "astId": 8,
        "contract": "contracts/WiFiAccessNFT.sol:WiFiAccessNFT",
        "label": "_owner",
        "offset": 0,
        "slot": "10",
        "type": "t_address"
      },
      {
        "astId": 3371,
        "contract": "contracts/WiFiAccessNFT.sol:WiFiAccessNFT",
        "label": "tickets",
        "offset": 0,
        "slot": "11",
        "type": "t_mapping(t_uint256,t_struct(AccessTicket)3366_storage)"
      },
      {
        "astId": 3374,
        "contract": "contracts/WiFiAccessNFT.sol:WiFiAccessNFT",
        "label": "price",
        "offset": 0,
        "slot": "12",
        "type": "t_uint256"
      },
      {
        "astId": 3377,
        "contract": "contracts/WiFiAccessNFT.sol:WiFiAccessNFT",
        "label": "defaultDuration",
        "offset": 0,
        "slot": "13",
        "type": "t_uint256"
      },
      {
        "astId": 3379,
        "contract": "contracts/WiFiAccessNFT.sol:WiFiAccessNFT",
        "label": "_nextTokenId",
        "offset": 0,
        "slot": "14",
        "type": "t_uint256"
      }
    ],
    "types": {
      "t_address": {
        "encoding": "inplace",
        "label": "address",
        "numberOfBytes": "20"
      },
      "t_array(t_uint256)dyn_storage": {
        "base": "t_uint256",
        "encoding": "dynamic_array",
        "label": "uint256[]",
        "numberOfBytes": "32"
      },
      "t_bool": {
        "encoding": "inplace",
        "label": "bool",
        "numberOfBytes": "1"
      },
      "t_mapping(t_address,t_bool)": {
        "encoding": "mapping",
        "key": "t_address",
        "label": "mapping(address => bool)",
        "numberOfBytes": "32",
        "value": "t_bool"
      },
      "t_mapping(t_address,t_mapping(t_address,t_bool))": {
        "encoding": "mapping",
        "key": "t_address",
        "label": "mapping(address => mapping(address => bool))",
        "numberOfBytes": "32",
        "value": "t_mapping(t_address,t_bool)"
      },
      "t_mapping(t_address,t_mapping(t_uint256,t_uint256))": {
        "encoding": "mapping",
        "key": "t_address",
        "label": "mapping(address => mapping(uint256 => uint256))",
        "numberOfBytes": "32",
        "value": "t_mapping(t_uint256,t_uint256)"
      },
      "t_mapping(t_address,t_uint256)": {
        "encoding": "mapping",
        "key": "t_address",
        "label": "mapping(address => uint256)",
        "numberOfBytes": "32",
        "value": "t_uint256"
      },
      "t_mapping(t_uint256,t_address)": {
        "encoding": "mapping",
        "key": "t_uint256",
        "label": "mapping(uint256 => address)",
        "numberOfBytes": "32",
        "value": "t_address"
      },
      "t_mapping(t_uint256,t_struct(AccessTicket)3366_storage)": {
        "encoding": "mapping",
        "key": "t_uint256",
        "label": "mapping(uint256 => struct WiFiAccessNFT.AccessTicket)",
        "numberOfBytes": "32",
        "value": "t_struct(AccessTicket)3366_storage"
      },
      "t_mapping(t_uint256,t_uint256)": {
        "encoding": "mapping",
        "key": "t_uint256",
        "label": "mapping(uint256 => uint256)",
        "numberOfBytes": "32",
        "value": "t_uint256"
      },
      "t_string_storage": {
        "encoding": "bytes",
        "label": "string",
        "numberOfBytes": "32"
      },
      "t_struct(AccessTicket)3366_storage": {
        "encoding": "inplace",
        "label": "struct WiFiAccessNFT.AccessTicket",
        "members": [
          {
            "astId": 3363,
            "contract": "contracts/WiFiAccessNFT.sol:WiFiAccessNFT",
            "label": "activationTime",
            "offset": 0,
            "slot": "0",
            "type": "t_uint256"
          },
          {
            "astId": 3365,
            "contract": "contracts/WiFiAccessNFT.sol:WiFiAccessNFT",
            "label": "duration",
            "offset": 0,
            "slot": "1",
            "type": "t_uint256"
          }
        ],
        "numberOfBytes": "64"
      },
      "t_uint256": {
        "encoding": "inplace",
        "label": "uint256",
        "numberOfBytes": "32"
      }
    }
  }
}